:100000000C940A090C9426090C9426090C942609D0
:100010000C9426090C9426090C9426090C942609A4
:100020000C9426090C9426090C94D40F0C942E10D1
:100030000C9426090C9426090C9426090C94260984
:100040000C9426090C9426090C9426090C94260974
:100050000C9426090C9426090C9426090C94260964
:100060000C9426090C9426090C9426090C94260954
:100070000C9426090C9426090C9426090C94260944
:100080000C9426090C9426090C9426090C94260934
:100090000C9426090C9426090C9426090C94260924
:1000A0000C9426090C9426090C9426090000520E83
:1000B000520E520E520E520E520E520E520E520E40
:1000C000520E520E520E0000520E520E520E520E90
:1000D000520E0000000000000000520E520E520EA0
:1000E000520E520E050F520E520E520E520E520E5C
:1000F000A00EA00E520E520E520E520E520E050FB0
:10010000520E520E520E520E520E520E00000000AF
:10011000520E520E520E520E520E520E520E520EDF
:10012000520E520E520E520E0000520E520E520E2F
:10013000520E520E520E520E520E520E520E520EBF
:10014000520E520E520E0000520E520E520E520E0F
:10015000520E520E0000880E880E880E880E880EF1
:10016000880E880E880E880E880E880E880E000075
:10017000880E880E880E880E880E880E880E880ECF
:10018000880E880E880E880E880E880E880E520EF5
:10019000520E520E520E000FA40EA40E000F520E5D
:1001A000520E520E520E520E880E520E520E520E19
:1001B000520E000F00000000520E520E000F000FF2
:1001C000000F520E880E000F000F520E520E00004C
:1001D0000000880E0000520E000F000F520E520E4B
:1001E0000000520E520E520E520E520E520E520E6F
:1001F000520E520E520E520E520E520E00000000BF
:1002000000000000000000000000000000000000EE
:1002100000000000000000000000000000000000DE
:1002200000000000000000000000000000000000CE
:1002300000000000000000000000000000000000BE
:1002400000000000000000000000000000000000AE
:10025000000000000000000000000000000000009E
:10026000000000000000000000000000000000008E
:10027000000000000000000000000000000000007E
:10028000000000000000000000000000000000006E
:10029000000000000000000000000000000000005E
:1002A000000000000000880E880E880E880E880E60
:1002B000880E880E880E880E520E880E880E00005A
:1002C000880E520E880E880E880E880E880E880EB4
:1002D000880E880E880E520E520E880E880E880EDA
:1002E000880E880E880E880E880E880E880E520E94
:1002F000520E520E520E880E880E880E880E880EF0
:10030000880E880E00000000880E520E520E520E0B
:10031000520E880E880E880E880E880E880E880E63
:10032000880E880E880E520E520E520E520E880EF5
:10033000880E880E880E880E880E880E880E0000A3
:10034000880E0000520E520E520E880E0000000061
:10035000000000000000A20EA40EB60EB80E0000B1
:10036000000000000000000000000000000000008D
:100370000000C60E000000000000000000000000A9
:100380000000000000000000000000009E0EA00E13
:1003900000000000000000000000B20EB40E770F55
:1003A00000000000880EC20EC40E00000000000015
:1003B00000000000AE0EB00E590F00000000690EE4
:1003C000BE0EC00E0000000000000000AA0EAC0E21
:1003D000050F000000000000520EBA0EBC0E000017
:1003E000000000000000A60EA80E000000000000A3
:1003F00000000000000000000000000000000000FD
:1004000000000000000000000000000000000000EC
:1004100000000000000000000000000000000000DC
:1004200000000000000000000000000000000000CC
:100730000000000000000000000000000000520E59
:10074000520E520E520E520E520E520E520E520EA9
:10075000520E520E520E0000520E520E520E520EF9
:10076000520E0000000000000000520E520E520E09
:10077000520E520E050F520E520E520E520E520EC5
:100780009E0E9E0E520E520E520E520E520E050F1D
:10079000520E520E520E520E520E520E0000000019
:1007A000520E520E520E520E520E520E520E520E49
:1007B000520E520E520E520E9E0E520E520E520EED
:1007C000520E520E520E520E520E520E520E520E29
:1007D000520E520E520E590F520E520E520E520E11
:1007E000520E520E0000880E880E880E880E880E5B
:1007F000880E880E880E880E880E880E880E0000DF
:10080000880E880E880E880E880E880E880E880E38
:10081000880E880E880E880E880E880E880E520E5E
:10082000520E520E520E000FA20EA20E000F520ECA
:10083000520E520E520E520E880E520E520E520E82
:10084000520E000F00000000520E520E000F000F5B
:10085000000F520E880E000F000F520E520E0000B5
:10086000A00E880E0000520E000F000F520E520E06
:100870000000520E520E520E520E520E520E520ED8
:10088000520E520E520E520E520E520E0000000028
:100890000000000000000000000000000000000058
:1008A0000000000000000000000000000000000048
:1008B0000000000000000000000000000000000038
:1008C0000000000000000000000000000000000028
:1008D0000000000000000000000000000000000018
:1008E0000000000000000000000000000000000008
:1008F00000000000000000000000000000000000F8
:1009000000000000000000000000000000000000E7
:100910000000000000000000C60E00000000000003
:1009200000000000000000000000000000000000C7
:10093000000000000000880E880E880E880E880EC9
:10094000880E880E880E880E520E880E880E0000C3
:10095000880E520E880E880E880E880E880E880E1D
:10096000880E880E880E520E520E880E880E880E43
:10097000880E880E880E880E880E880E880E520EFD
:10098000520E520E520E880E880E880E880E880E59
:10099000880E880E00000000880E520E520E520E75
:1009A000520E880E880E880E880E880E880E880ECD
:1009B000880E880E880E520E520E520E520E880E5F
:1009C000880E880E880E880E880E880E880E770F87
:1009D000880E770F520E520E520E880E0000000045
:1009E0000000000000000000000000000000000007
:1009F00000000000000000000000000000000000F7
:100A000000000000000000000000000000000000E6
:100A100000000000000000000000000000000000D6
:100DC000000000000000000000000000004D4C2A60
:100DD0004AE0E2E6E44B2C284E00E33531504F0068
:100DE0000000005051524FE7E11D1B06190501019B
:100DF0001110363738E52B041607090A00000B0DD1
:100E00000E0F333431141A081517012F1C180C1249
:100E100013302E1E1F202122290323242526272DAF
:100E200000000000000000000000000000000000C2
:100E3000000000000000000000000000005E5F6095
:100E4000612E0202255A5B5C5D7F0033382D6233D0
:100E50000000315926272E81002F302F300001004D
:100E6000002D3637B480003A3B3C3D3E44453F4080
:100E70004142436600000000000000000000000046
:100E80000000000000000000000000000000000062
:100E90000000000000000000000000000000000052
:100EA0000000000000000000000000000000000042
:100EB0000000000000000000000000000000000032
:100EC0000000000000000000000000000000000022
:100ED0000000620000000049000000000000000067
:100EE00000375800000000000000000000595A5B65
:100EF00058000000000000000000005C5D5E57002C
:100F00000000000000000000005F6061560000006B
:100F100000000000000300036754550000000000BB
:100F200000000000000000000000000000000000C1
:100F300000000000000000000000000000000000B1
:100F400000000000000000000000000000000000A1
:100F50000000000000000000000000000000000091
:100F60000000000000000000000000000000000081
:100F70000000000000000000000000000000000071
:100F80000000000000000000000000000000000061
:100F90000000000000000000000000000000000051
:100FA0000000000000000000000000000000000041
:100FB0000000000000000000000000000000000031
:100FC0000000000000000000000000000000000021
:100FD0000000000000000000000000000000000011
:100FE0000000000000000000000000000000000001
:100FF00000000000000000000000000000000000F1
:1010000000000000000000000000000000000000E0
:1010100000000000000000000000000000000000D0
:1010200000000000000000000000000000000000C0
:1010300000000000000000000000000000000000B0
:1010400000000000000000000000000000000000A0
:101050000000000000000000000000000000000090
:101060000000000000000000000000000000000080
:101070000000000000000000000000000000000070
:101080000000000000000000000000000000000060
:101090000000000000000000000000000000000050
:1010A0000000000000000000000000000000000040
:1010B0000000000000000000000000000000000030
:1010C0000000000000000000000000000000000020
:1010D0000000000000000000000000000000000010
:1010E0000000000000000000000000000000000000
:1010F00000000000000000000000000000000000F0
:1011000000000000000000000000000000000000DF
:101110000000000000010000FC1112000200009B12
:10112000112200220000BD113F00210000AD110975
:1011300000030000971104010309047D1118020344
:10114000090445113636034500720067006F0044FC
:10115000006F00780020006500720067006F006E6D
:10116000006F006D006900630020006B006500796E
:101170000062006F006100720064000000180375D7
:10118000006E00730070006500630069006600690E
:101190000065006400000004030904090222000144
:1011A0000100C032090400000103010100092111FE
:1011B000010001223F000705830308000105010922
:1011C00006A10175019508050719E029E715002515
:1011D00001810295017508810395057501050819BE
:1011E000012905910295017503910395067508156E
:1011F0000025680507190029688100C01201000256
:1012000000000020501D28600001010200010000C4
:1012100001C1060011241FBECFEFDAE0DEBFCDBF53
:1012200011E0A0E0B1E0EAE3F3E202C005900D9224
:10123000AA31B107D9F722E0AAE1B1E001C01D92BD
:10124000AA36B207E1F735D00C948B110C9400004C
:1012500080914601E091480194E5E99FF001112455
:101260009EE0899FE00DF11D112480914501E80F5A
:10127000F11DEE0FFF1F80914401882341F0E45CD3
:10128000F84F85919491009729F0FC010994E45559
:10129000FF4FF7CF0895E0911A01E81740F0E81BDF
:1012A000FF0BEE0FFF1FE55EFE4F8081089580E08B
:1012B000089513D18CE090E090938900809388008A
:1012C00090938B0080938A0090938D0080938C0084
:1012D000259A269A279A16D62CD68823E9F38FE7E3
:1012E00090E090938900809388002FE732E440E1FA
:1012F000215030404040E1F700C0000090938B0047
:1013000080938A002FE732E440E121503040404092
:10131000E1F700C0000090938D0080938C002FE7D0
:1013200032E440E1215030404040E1F700C000008D
:101330002598269827989093890080938800909309
:101340008B0080938A0090938D0080938C008EE0B8
:10135000D82E8091140190911501209116013091A1
:101360001701309315012093140190931701809376
:101370001601C0D010924A0110E01093490100916B
:101380004A011E3000F10F5F00934A010630A0F3BE
:10139000D3D58FE19EE40197F1F700C00000809162
:1013A000600280FF49C0259A8091600281FF46C09B
:1013B000269A8091600282FF43C0279A8091600242
:1013C00080916002C6CFE12EF12CE0911601F091E0
:1013D0001701D09EE0011124EC0FFD1FEE0DFF1D43
:1013E000208120934401E0911401F0911501EC0F4C
:1013F000FD1FEE0DFF1D308130934301231791F047
:10140000C55BDE4F222391F080E045DF80934801E9
:10141000CE0DDF1D88830093460110934501109285
:10142000470116DF109149011F5FA7CFCE0DDF1DC9
:10143000888180934801EFCF2598B6CF2698B9CF01
:101440002798BCCF982F21E030E0822FF901E0509F
:10145000FF4F408141110FC031E03083E0911A010C
:10146000EF5FE0931A01F0E0EE0FFF1FE55EFE4F25
:101470009083218308952F5F3F4F2431310529F751
:1014800080E0089520911A0191E0A82FB0E0A050CB
:10149000BF4F291718F420931A010895E92FF0E09F
:1014A000EE0FFF1FE55EFE4F318138130DC0921322
:1014B0000DC0E92FF0E0EE0FFF1FE55EFE4F10823A
:1014C00011821C922FEF290F9F5FE3CF328130836F
:1014D000338131839F5F3296EACFBED0811108C03D
:1014E0001ED091E0811101C090E0892F880F0895EE
:1014F00081E00895CF93DF93D82FC92F76D1811142
:101500000CC08D2F9C2F36D091E0811101C090E04E
:10151000892F880FDF91CF91089581E0FBCFCF9382
:1015200035D380E452D3C82F811120C080E04DD341
:1015300080E84BD38FEF49D340D328D380E445D301
:10154000C82F811113C08CE040D380E83ED38FEFC9
:101550003CD333D31BD380E438D3C82F811106C0CA
:1015600084E133D38FEF31D38FEF2FD326D38C2F5A
:10157000CF910895BF92CF92DF92EF92FF920F9397
:101580001F93CF93DF930F92CDB7DEB78C01C7DFE8
:10159000B82EF12CE12CCC24C394D12CBB20D1F05B
:1015A000F801C8018C5A9F4F27E0DF01322F1D92AE
:1015B0003A95E9F73E968E179F07B9F78B2D0F9056
:1015C000DF91CF911F910F91FF90EF90DF90CF901F
:1015D000BF900895DBD280E4F8D282E1F6D2C60152
:1015E0000E2C01C0880F0A94EAF78095EED2E5D25E
:1015F000CDD280E4EAD283E1E8D2C8D281E4E5D258
:10160000CE01019600D3D9D2498150E0F801EE0D08
:10161000FF1D85E090E09A01082E02C035952795C0
:101620000A94E2F7209530952170208301973E9629
:101630008F3F980781F7BFEFEB1AFB0A27E0E2160E
:10164000F10409F0C7CFA2D280E4BFD282E1BDD2BB
:101650008FEFBBD2B2D2B2CFE1E6F0E080E8808378
:10166000108256985E9824982C982598269827984A
:1016700089EA8093800089E0809381007ED23F9840
:1016800085E08A95F1F70000579885E08A95F1F793
:101690000000549885E08A95F1F70000559885E0A0
:1016A0008A95F1F700006E9885E08A95F1F70000C1
:1016B000479A85E08A95F1F700005F9A85E08A9560
:1016C000F1F700005C9A85E08A95F1F700005D9AD9
:1016D00085E08A95F1F70000769A85E08A95F1F722
:1016E0000000879885E08A95F1F70000869885E0EC
:1016F0008A95F1F70000859885E08A95F1F700005A
:10170000849885E08A95F1F70000819885E08A95B4
:10171000F1F70000809885E08A95F1F700002098A5
:1017200085E08A95F1F70000219885E08A95F1F728
:101730000000229885E08A95F1F70000239885E063
:101740008A95F1F70000529885E08A95F1F700003C
:10175000539885E08A95F1F700003E9885E08A95D8
:10176000F1F700008F9A85E08A95F1F700008E9AD4
:1017700085E08A95F1F700008D9A85E08A95F1F76A
:1017800000008C9A85E08A95F1F70000899A85E03F
:101790008A95F1F70000889A85E08A95F1F70000B4
:1017A000289885E08A95F1F70000299885E08A95C8
:1017B000F1F700002A9885E08A95F1F700002B9850
:1017C00085E08A95F1F700005A9885E08A95F1F74F
:1017D00000005B9885E08A95F1F70000469885E067
:1017E0008A95F1F7000080E00895CF93DF93FC0124
:1017F000209A85E08A95F1F700008FB18095881FC7
:101800008827881F87839FB181E096FB992790F9ED
:101810009827958B9FB195FB992790F9982793A3CB
:101820009FB192959170982791AB9FB196959170C9
:10183000982797AF9FB1DF01AA5BBF4F909591703A
:1018400017969C931797209895E09A95F1F70000CA
:10185000219A95E09A95F1F700009FB19095991F14
:101860009927991F90879FB196FB992790F9982700
:10187000968B9FB195FB992790F9982794A39FB1D8
:1018800092959170982792AB9FB1EF01C05CDF4FAA
:1018900096959170982798839FB19095917018961E
:1018A0009C931897219895E09A95F1F70000229A59
:1018B00095E09A95F1F700009FB19095991F9927AF
:1018C000991F91879FB196FB992790F99827978B3D
:1018D0009FB195FB992790F9982795A39FB1929571
:1018E0009170982793AB9FB1219696959170982708
:1018F00098839FB19095917019969C93199722980F
:1019000095E09A95F1F70000239A95E09A95F1F702
:1019100000009FB19095991F9927991F92879FB1B9
:1019200096FB992790F99827908F9FB195FB99275F
:1019300090F9982796A39FB192959170982794ABB0
:101940009FB1219696959170982798839FB1909515
:1019500091701A969C931A97239895E09A95F1F7AF
:101960000000529A95E09A95F1F700009FB190958A
:10197000991F9927991F93879FB196FB992790F9F3
:101980009827918F9FB195FB992790F9982797A356
:101990009FB192959170982795AB9FB1219696959E
:1019A0009170982798839FB1909591701B969C9306
:1019B0001B97529895E09A95F1F70000539A95E09D
:1019C0009A95F1F700009FB19095991F9927991F5B
:1019D00094879FB196FB992790F99827928F9FB192
:1019E00095FB992790F9982790A79FB192959170B0
:1019F000982796AB9FB121969695917098279883DA
:101A00009FB1909591701C969C931C97539895E06C
:101A10009A95F1F700003E9A95E09A95F1F700004B
:101A20009FB19095991F9927991F95879FB196FB14
:101A3000992790F99827938F9FB195FB992790F953
:101A4000982791A79FB192959170982797AB9FB1D6
:101A5000EB5BFF4F96959170892780838FB18095BE
:101A600081701D968C933E9885E08A95F1F7000071
:101A700080E0DF91CF910895662309F456C0E0E23B
:101A8000E60FE830C0F5F0E0E357FE4E90916802B3
:101A90003CC4882321F091609093680208959E7F52
:101AA000FBCF882311F09260F7CF9D7FF5CF88237D
:101AB00011F09460F1CF9B7FEFCF882311F09860F5
:101AC000EBCF977FE9CF882311F09061E5CF9F7E20
:101AD000E3CF882311F09062DFCF9F7DDDCF882395
:101AE00011F09064D9CF9F7BD7CF882311F09068F5
:101AF000D3CF9F77D1CFE2E6F2E030E020E09191C2
:101B0000882339F091110CC02E593D4FF9016083A3
:101B10000895961305C02E593D4FF901108208957E
:101B20002F5F3F4F2630310551F70895E0E2E80F6F
:101B3000E830B0F4F0E0EB56FE4E90916802E5C359
:101B400090FD19C091FD17C092FD15C093FD13C003
:101B500094FD11C095FD0FC096FD0DC097FD0BC003
:101B6000E2E6F2E09191981731F092E0E836F90759
:101B7000C9F780E0089581E00895E9EBF0E0808105
:101B80008C7F808388E48093B800089584EA8093F2
:101B9000BC008091BC0087FFFCCF8091B900887F9A
:101BA000883049F08091B900887F803121F08091A0
:101BB000B900887F089580E0089584E98093BC008F
:101BC0008091BC0084FDFCCF08958093BB0084E825
:101BD0008093BC008091BC0087FFFCCF8091B9004E
:101BE000887F883171F08091B900887F883249F010
:101BF0008091B900887F803421F08091B900887F7E
:101C0000089580E00895FC0184EC8093BC008091ED
:101C1000BC0087FFFCCF8091BB0080838091B9001E
:101C2000887F803521F08091B900887F089580E019
:101C30000895CF93DF93C82FD0E0CC0FDD1FC95B91
:101C4000DD4F88811FDC19821882DF91CF910895C2
:101C50000F931F93CF9390914601E091480124E5A3
:101C6000E29FF00111242EE0929FE00DF11D11245E
:101C700090914501E90FF11DE453F24FC491082FF3
:101C800010E0000F111F095B1D4FF8018081FADB86
:101C90008C2FD8DB90E0F80191838083CF911F9146
:101CA0000F91089580914601E091480194E5E99FE4
:101CB000F00111249EE0899FE00DF11D1124809117
:101CC0004501E80FF11DE453F24F64918091440106
:101CD000D3CECF9380914601E091480194E5E99FEE
:101CE000F00111249EE0899FE00DF11D11248091E7
:101CF0004501E80FF11DE453F24FC4918C2F16DF1C
:101D00006C2F882319F080E0CF91B6CE81E0FCCF14
:101D1000809147018F5F80934701BDDA809348012E
:101D2000E0914601909145012EE0E29FF0011124DF
:101D3000E55BFE4FE90FF11D80838ACA81E088CF01
:101D400081E077CF82E084CF82E073CF83E080CFE1
:101D500083E06FCF84E07CCF84E06BCF85E078CFE9
:101D600085E067CF86E074CF86E063CF87E070CFF1
:101D700087E05FCF88E06CCF88E05BCF89E068CFF9
:101D800089E057CF8AE064CF8AE053CFF89481E0AE
:101D90008093E00080E28093D800E9ECF0E01082CC
:101DA0008FE19EE40197F1F700C000001DBA109288
:101DB00068001CBC10BE1FBA10927A0010926E0010
:101DC00010926F0010927100109272001082ECEB72
:101DD000F0E0108214B817B81AB81DB810BA108203
:101DE00015B818B81BB81EB811BA0C94003F089566
:101DF00063E881E041DEA0D063E880E03DDE9CC086
:101E000061EE8091440138DE4DCF80914601E09132
:101E1000480194E5E99FF00111249EE0899FE00DBF
:101E2000F11D112480914501E80FF11DE453F24F9B
:101E3000649180914401811105C090915D0291509F
:101E400090935D0219DE80915D02813041F58091B1
:101E50004401882369F181EE69DE80935C0285EE9E
:101E600065DE80935B0261EE80E006DE65EE80E079
:101E700003DE69E381E000DE5FD069E380E0FCDD42
:101E80005BD080915C02882319F061EE81E0F4DD83
:101E900080915B02882319F065EE81E0EDDD809191
:101EA0004401882329F080915D028F5F80935D0259
:101EB0000895CF9380914601E091480194E5E99F10
:101EC000F00111249EE0899FE00DF11D1124809105
:101ED0004501E80FF11DE453F24FC49180915E0279
:101EE000D1DA8C2FAFDA80935E02CF9181CF8091CF
:101EF0005E02C8DA10925E027BCF8091E80080FF1C
:101F0000FCCF089581E08093D70080EA8093D800C9
:101F100082E189BD09B400FEFDCF80E98093D8003D
:101F20001092E000109269028CE08093E2007894B5
:101F3000089580916902089580916902811102C01B
:101F40008FEF08958FB7F89493E09093E900909104
:101F5000E4009E5C23E03091E80035FD0EC08FBFA9
:101F600080916902882361F38091E400891741F32D
:101F70008FB7F8942093E900EECF90916802909388
:101F8000F1001092F100E2E6F2E091919093F100FD
:101F900092E0E836F907C9F79AE39093E8001092C7
:101FA00061028FBF80E008951F921FB61F92112417
:101FB0008F939F93EF93FF938091E1001092E10044
:101FC00083FF0FC01092E90091E09093EB00109214
:101FD000EC0092E29093ED0098E09093F000109264
:101FE000690282FF33C080916902882379F1809170
:101FF0001801882359F180915F028F5F80935F02FF
:10200000837021F583E08093E9008091E80085FFEB
:102010001DC0809161028F5F8093610290911801D1
:10202000891314C010926102809168028093F100BC
:102030001092F100E2E6F2E081918093F10082E0FB
:10204000E836F807C9F78AE38093E800FF91EF913B
:102050009F918F911F901FBE1F9018951F920F92F6
:102060000FB60F921124EF92FF920F931F932F93AD
:102070003F934F935F936F937F938F939F93AF9310
:10208000BF93CF93DF93EF93FF931092E90080917A
:10209000E80083FF73C0D091F100C091F10000917E
:1020A000F1008091F100182FE090F1008091F10093
:1020B000F82E8091F1009091F10022EF2093E8003A
:1020C000C63009F067C024E131E145E451E1F9018E
:1020D000659174910617170709F04AC0F901329605
:1020E00065917491E616F70609F042C0F90134963D
:1020F000459154912A5F3F4FF90124918F3F9105FB
:1021000019F010F08FEF90E0281708F4822F3EEFBF
:102110009091E800292F2570D9F392FD12C0982FD5
:10212000813208F090E2FA01292F21112DC0490FC8
:10213000511D282F291B3093E800891323C08032BA
:1021400009F1FF91EF91DF91CF91BF91AF919F91F5
:102150008F917F916F915F914F913F912F911F913F
:102160000F91FF90EF900F900FBE0F901F9018955A
:10217000295F3F4F4217530709F0A9CF81E28093AF
:10218000EB00DFCF822FC4CF64916093F100215028
:102190003196CBCFC53041F48EEF8093E800ADDEB1
:1021A00000680093E300CDCFC93049F5D1116AC072
:1021B000009369028EEF8093E80021E08EE092E1C7
:1021C0002093E900AC014F5F5F4FFC0134913093E5
:1021D000EB00332391F0FA0144914093EC003196E7
:1021E000E4910396E093ED002F5F253049F78EE1EF
:1021F0008093EA001092EA00A4CFCA01F5CFC8305C
:1022000049F4D03809F03EC078DE809169028093AD
:10221000F10012C0C11114C070DED23849F4E0924E
:10222000E900C091EB00C5FBCC27C0F91092E90092
:10223000C093F1001092F1008EEF8093E80081CFFF
:102240008C2F8D7F8130F1F4D230E1F4012B09F035
:1022500095CF2E2D2F778FEF820F843008F08ECF01
:102260008EEF8093E8002093E900C33009F486CF15
:1022700089E18093EB0081E090E001C0880F2A950E
:10228000EAF7B6CFEF2809F079CFD13A01F5C1309E
:1022900089F433DE809168028093F1001092F1009E
:1022A000E2E6F2E081918093F10082E0E836F807FF
:1022B000C9F7C2CFC23021F420DE80911801A7CF28
:1022C000C33009F05BCF19DE80911901A0CFD13264
:1022D00009F054CFC93061F48091E80082FFFCCF4F
:1022E0008091F100809360028BEF8093E800A4CF8F
:1022F000CA3029F410931801109261029DCFCB309F
:1023000009F03CCF0093190197CFEE0FFF1F059006
:10231000F491E02D0994F894FFCF490D510D570D1C
:102320005D0D630D690D6F0D750DA00DA20DA40D52
:0A233000A60DA80DAA0DAC0DAE0D10
:10233A000100000000000000000000000000000092
:0A234A00000000009F01F3017D0177
:00000001FF
